:100000000C9434000C943E000C943E000C943E0082
:100010000C943E000C943E000C943E000C943E0068
:100020000C943E000C943E000C943E000C943E0058
:100030000C943E000C943E000C943E000C943E0048
:100040000C943E000C943E000C943E000C943E0038
:100050000C943E000C943E000C943E000C943E0028
:100060000C943E000C943E0011241FBECFEFD8E04C
:10007000DEBFCDBF0E9440000C9463000C940000D2
:10008000EAE2F0E0808182688083E4E2F0E080814F
:100090008D7C8083E3E2F0E0ABE2B0E022E092E826
:1000A000808181FD03C08C9182278C93808184FDA7
:1000B00003C08C9189278C93808185FDF1CF8C9131
:0A00C00080588C93EDCFF894FFCF29
:00000001FF
