:100000000C9434000C943E000C943E000C943E0082
:100010000C943E000C943E000C943E000C943E0068
:100020000C943E000C943E000C943E000C943E0058
:100030000C943E000C943E000C943E000C943E0048
:100040000C943E000C943E000C943E000C943E0038
:100050000C943E000C943E000C943E000C943E0028
:100060000C943E000C943E0011241FBECFEFD8E04C
:10007000DEBFCDBF0E9440000C94D6000C9400005F
:100080006F927F929F92AF92BF92CF92DF92EF9248
:10009000FF920F931F93CF93DF93E3E2F0E0808111
:1000A00090E0CC24DD246894C1F8C822D922808154
:1000B00090E08C0100721070EAE2F0E080818260D2
:1000C0008083A4E2B0E08C918D7F8C93E5E2F0E038
:1000D0008081826080838C918F7D8C93808180620F
:1000E000808321E030E042E350E0ABE2B0E0E3E2C5
:1000F000F0E0AA24BB24A394EE24FF240F2EF4E600
:100100006F2E7724F02D0F2EF2E49F2EF02D01C0DC
:1001100097012417350720F48C9182608C9303C0DB
:100120008C918D7F8C93808190E0827090708C1583
:100130009D0511F4E7010BC0808181FFE5018081FD
:1001400090E0CC24DD246894C1F8C822D9228081B3
:1001500090E0807290708017910711F4B70108C089
:10016000808185FFB501808190E08C010072107064
:10017000C130D10539F44530510510F4A70102C052
:10018000455050406130710539F44036510510F04A
:10019000A30102C04B5F5F4F892D8A95F1F72F5F56
:1001A0003F4F2436310508F0B3CFB3CFF894FFCFDB
:00000001FF
