:100000000C9434000C9449000C9449000C94490061
:100010000C9449000C9449000C9449000C9449003C
:100020000C9449000C9449000C9449000C9449002C
:100030000C9449000C9449000C9449000C9449001C
:100040000C9449000C9449000C9449000C9449000C
:100050000C9449000C9449000C9449000C944900FC
:100060000C9449000C94490011241FBECFEFD8E036
:10007000DEBFCDBF11E0A0E0B1E0E2EDFEE102C0E5
:1000800005900D92A830B107D9F70E94910A0C94FF
:10009000670F0C940000EF92FF920F931F937B0168
:1000A0008C01DA01B90120E030E040E050E0E0E00E
:1000B000F0E092E4319681E0E43FF80710F0E0E0F0
:1000C000F0E0EA17FB0718F45D985E9A03C08BB165
:1000D0008F798BB9E617F70718F45B982B9A02C053
:1000E0005B982B982E153F054007510741F02F5F75
:1000F0003F4F4F4F5F4F892F8A95F1F7DBCF8BB181
:1001000088668BB92B9A1F910F91FF90EF900895FD
:10011000EF92FF920F931F937B018C01DA01B901DB
:1001200020E030E040E050E0E0E0F0E092E43196A2
:1001300081E0E43FF80710F0E0E0F0E0EA17FB07A9
:1001400018F45D9A5E9803C08BB18F798BB9E6176E
:10015000F70718F45B982B9A02C05B982B982E1522
:100160003F054007510741F02F5F3F4F4F4F5F4F13
:10017000892F8A95F1F7DBCF8BB188668BB92B9AE3
:100180001F910F91FF90EF900895EF92FF920F93C0
:100190001F937B018C01DA01B90120E030E040E0DF
:1001A00050E0E0E0F0E092E4319681E0E43FF807CF
:1001B00010F0E0E0F0E0EA17FB0718F45D985E9AB3
:1001C00003C08BB18F798BB9E617F70710F45B9AF0
:1001D00001C05B982B982E153F054007510741F051
:1001E0002F5F3F4F4F4F5F4F892F8A95F1F7DCCF3D
:1001F0008BB188668BB92B9A1F910F91FF90EF906E
:100200000895AF92BF92CF92DF92EF92FF920F9339
:100210001F93CF93DF93EC010E94230C40E050E04A
:100220008E819F81892B11F441E050E020E030E085
:100230008C819D81892B11F421E030E042235323EE
:1002400020E030E088859985892B11F421E030E0A9
:100250002423352340E088819981892B09F441E0EA
:1002600050E08A819B81892B09F451E04523842F3A
:1002700090E028233923232B61F00E94230C68E8A7
:1002800073E180E090E046E250E02DE230E00E9431
:10029000C50040E050E08E819F81892B11F441E040
:1002A00050E020E030E08C819D81892B11F421E029
:1002B00030E04223532320E030E0888599851816EA
:1002C000190614F421E030E02423352340E088812E
:1002D0009981892B09F441E050E08A819B81892B27
:1002E00009F451E04523842F90E028233923232B60
:1002F00051F068E873E180E090E046E250E02DE2E2
:1003000030E00E94C50040E050E08E819F811816C9
:10031000190614F441E050E020E030E08C819D812A
:10032000892B11F421E030E04223532320E030E018
:1003300088859985892B11F421E030E02423352329
:1003400040E088819981892B09F441E050E08A815D
:100350009B81892B09F451E04523842F90E02823C9
:100360003923232BA1F06CED75E080E090E046E2AC
:1003700050E02DE230E00E94C50068EB7BE080E0B9
:1003800090E046E250E02DE230E00E944B0040E079
:1003900050E08E819F811816190614F441E050E058
:1003A00020E030E08C819D81892B11F421E030E048
:1003B0004223532320E030E08885998518161906DA
:1003C00014F421E030E02423352340E08881998132
:1003D000892B09F441E050E08A819B81892B09F443
:1003E00051E04523842F90E028233923232B61F00B
:1003F0000E94230C68E873E180E090E046E250E060
:100400002DE230E00E94C50040E050E08E819F81E7
:10041000892B11F441E050E020E030E08C819D8197
:100420001816190614F421E030E04223532320E08B
:1004300030E088859985892B11F421E030E0242370
:10044000352340E088819981892B09F441E050E00F
:100450008A819B81892B09F451E04523842F90E008
:1004600028233923232B61F00E94230C68E873E1D1
:1004700080E090E046E250E02DE230E00E94C500CE
:1004800040E050E08E819F81892B11F441E050E0E3
:1004900020E030E08C819D811816190614F421E0CB
:1004A00030E04223532320E030E0888599851816F8
:1004B000190614F421E030E02423352340E088813C
:1004C0009981892B09F441E050E08A819B81892B35
:1004D00009F451E04523842F90E028233923232B6E
:1004E000A1F06CED75E080E090E046E250E02DE296
:1004F00030E00E94C50068EB7BE080E090E046E2DF
:1005000050E02DE230E00E944B0040E050E08E8150
:100510009F811816190614F441E050E020E030E005
:100520008C819D811816190614F421E030E04223D5
:10053000532320E030E088859985892B11F421E050
:1005400030E02423352340E088819981892B09F408
:1005500041E050E08A819B81892B09F451E04523D9
:10056000842F90E028233923232BA1F06CED75E034
:1005700080E090E046E250E02DE230E00E94C500CD
:1005800068EB7BE080E090E046E250E02DE230E076
:100590000E944B0040E050E08E819F8118161906A2
:1005A00014F441E050E020E030E08C819D81181689
:1005B000190614F421E030E04223532320E030E018
:1005C000888599851816190614F421E030E0242353
:1005D000352340E088819981892B09F441E050E07E
:1005E0008A819B81892B09F451E04523842F90E077
:1005F00028233923232B31F406E210E05DE2E52EB7
:10060000F12C11C00E94230C68EB7BE080E090E0AD
:1006100045E250E02CE230E00E944B0005E210E0A1
:100620004CE2E42EF12C40E050E08E819F81892B3A
:1006300011F441E050E020E030E08C819D81892B75
:1006400011F421E030E04223532320E030E088859C
:100650009985892B11F421E030E02423352340E0F3
:1006600088819981892B09F441E050E08A819B813E
:10067000181619060CF451E04523842F90E0282326
:100680003923232B81F06CED75E080E090E0A80128
:1006900097010E94880068EB7BE080E090E0A80171
:1006A00097010E944B0040E050E08E819F81892B92
:1006B00011F441E050E020E030E08C819D81892BF5
:1006C00011F421E030E04223532320E030E088851C
:1006D00099851816190614F421E030E024233523F7
:1006E00040E088819981892B09F441E050E08A81BA
:1006F0009B81181619060CF451E04523842F90E0D5
:1007000028233923232BF9F00E94230C0150104099
:100710000894E108F10868E97AE380E090E0A80134
:1007200097010E94880068E97AE380E090E0A801E0
:1007300097010E94C50068EB7BE080E090E0A80193
:1007400097010E944B0040E050E08E819F81181677
:10075000190614F441E050E020E030E08C819D81E6
:10076000892B11F421E030E04223532320E030E0D4
:1007700088859985892B11F421E030E024233523E5
:1007800040E088819981892B09F441E050E08A8119
:100790009B81181619060CF451E04523842F90E034
:1007A00028233923232B41F068EB7BE080E090E0A5
:1007B000A80197010E944B0040E050E08E819F818C
:1007C0001816190614F441E050E020E030E08C8166
:1007D0009D81892B11F421E030E04223532320E056
:1007E00030E0888599851816190614F421E030E068
:1007F0002423352340E088819981892B09F441E045
:1008000050E08A819B81181619060CF451E04523AB
:10081000842F90E028233923232B81F06CED75E0A1
:1008200080E090E0A80197010E94C50068EB7BE0A2
:1008300080E090E0A80197010E944B0040E050E06A
:100840008E819F81892B11F441E050E020E030E05F
:100850008C819D811816190614F421E030E04223A2
:10086000532320E030E088859985892B11F421E01D
:1008700030E02423352340E088819981892B09F4D5
:1008800041E050E08A819B81181619060CF451E072
:100890004523842F90E028233923232B81F06CED0E
:1008A00075E080E090E0A80197010E94C50068EB28
:1008B0007BE080E090E0A80197010E944B0040E0BF
:1008C00050E08E819F81892B11F441E050E020E0BF
:1008D00030E08C819D811816190614F421E030E077
:1008E0004223532320E030E08885998518161906A5
:1008F00014F421E030E02423352340E088819981FD
:10090000892B09F441E050E08A819B811816190671
:100910000CF451E04523842F90E028233923232B26
:1009200081F06CED75E080E090E0A80197010E94F5
:10093000C50068EB7BE080E090E0A80197010E9491
:100940004B0040E050E08E819F811816190614F488
:1009500041E050E020E030E08C819D8118161906BE
:1009600014F421E030E04223532320E030E0888576
:100970009985892B11F421E030E02423352340E0D0
:1009800088819981892B09F441E050E08A819B811B
:10099000181619060CF451E04523842F90E0282303
:1009A0003923232B41F068EB7BE080E090E0A80145
:1009B00097010E944B0040E050E08E819F81181605
:1009C000190614F441E050E020E030E08C819D8174
:1009D0001816190614F421E030E04223532320E0D6
:1009E00030E0888599851816190614F421E030E066
:1009F0002423352340E088819981892B09F441E043
:100A000050E08A819B81181619060CF451E04523A9
:100A1000842F90E028233923232B39F438EBA32E9D
:100A20003BE0B32EC12CD12C1DC0015010400894C6
:100A3000E108F1080E94230C68E873E180E090E08F
:100A4000A80197010E94C50068E873E180E090E08A
:100A5000A80197010E944B0028E8A22E23E1B22EA4
:100A6000C12CD12C40E050E08E819F81892B11F464
:100A700041E050E020E030E08C819D81892B11F431
:100A800021E030E04223532320E030E0888599853F
:100A9000892B11F421E030E02423352340E08881C4
:100AA0009981181619060CF441E050E08A819B8167
:100AB000892B09F451E04523842F90E02823392322
:100AC000232B41F068E873E180E090E0A8019701F2
:100AD0000E94880040E050E08E819F81892B11F4B4
:100AE00041E050E020E030E08C819D81892B11F4C1
:100AF00021E030E04223532320E030E088859985CF
:100B00001816190614F421E030E02423352340E0C0
:100B100088819981181619060CF441E050E08A8109
:100B20009B81892B09F451E04523842F90E02823F1
:100B30003923232B41F068E873E180E090E0A801BD
:100B400097010E94C50040E050E08E819F811816F9
:100B5000190614F441E050E020E030E08C819D81E2
:100B6000892B11F421E030E04223532320E030E0D0
:100B700088859985892B11F421E030E024233523E1
:100B800040E088819981181619060CF441E050E084
:100B90008A819B81892B09F451E04523842F90E0C1
:100BA00028233923232B41F068E873E180E090E0AB
:100BB000A80197010E94C50040E050E08E819F810E
:100BC0001816190614F441E050E020E030E08C8162
:100BD0009D81892B11F421E030E04223532320E052
:100BE00030E0888599851816190614F421E030E064
:100BF0002423352340E088819981181619060CF4C6
:100C000041E050E08A819B81892B09F451E0452322
:100C1000842F90E028233923232B41F068E873E1E7
:100C200080E090E0A80197010E94C50040E050E0FC
:100C30008E819F81892B11F441E050E020E030E06B
:100C40008C819D811816190614F421E030E04223AE
:100C5000532320E030E088859985892B11F421E029
:100C600030E02423352340E0888199811816190645
:100C70000CF441E050E08A819B81892B09F451E01A
:100C80004523842F90E028233923232B71F06CED2A
:100C900075E080E090E0A80197010E94C500C601C0
:100CA000B501A80197010E944B0040E050E08E8101
:100CB0009F81892B11F441E050E020E030E08C81ED
:100CC0009D811816190614F421E030E042235323C5
:100CD00020E030E0888599851816190614F421E083
:100CE00030E02423352340E08881998118161906C5
:100CF0000CF441E050E08A819B81892B09F451E09A
:100D00004523842F90E028233923232B71F06CEDA9
:100D100075E080E090E0A80197010E94C500C6013F
:100D2000B501A80197010E944B0040E050E08E8180
:100D30009F811816190614F441E050E020E030E0DD
:100D40008C819D811816190614F421E030E04223AD
:100D5000532320E030E088859985892B11F421E028
:100D600030E02423352340E0888199811816190644
:100D70000CF441E050E08A819B81892B09F451E019
:100D80004523842F90E028233923232B41F068E862
:100D900073E180E090E0A80197010E94C50040E067
:100DA00050E08E819F811816190614F441E050E03E
:100DB00020E030E08C819D811816190614F421E0A2
:100DC00030E04223532320E030E0888599851816CF
:100DD000190614F421E030E02423352340E0888113
:100DE0009981181619060CF441E050E08A819B8124
:100DF000892B09F451E04523842F90E028233923DF
:100E0000232B19F10E94230C015010400894E10893
:100E1000F10868E97AE380E090E0A80197010E9478
:100E20008800C601B501A80197010E944B0068E93E
:100E30007AE380E090E0A80197010E94C500C60116
:100E4000B501A80197010E944B0040E050E08E815F
:100E50009F81892B11F441E050E020E030E08C814B
:100E60009D81892B11F421E030E04223532320E0BF
:100E700030E088859985892B11F421E030E0242326
:100E8000352340E088819981181619060CF441E059
:100E900050E08A819B81181619060CF451E0452315
:100EA000842F90E028233923232B41F068E873E155
:100EB00080E090E0A80197010E94880040E050E0A7
:100EC0008E819F81892B11F441E050E020E030E0D9
:100ED0008C819D81892B11F421E030E04223532342
:100EE00020E030E0888599851816190614F421E071
:100EF00030E02423352340E08881998118161906B3
:100F00000CF441E050E08A819B81181619060CF41C
:100F100051E04523842F90E028233923232B41F0EF
:100F200068E873E180E090E0A80197010E948800E2
:100F300040E050E08E819F811816190614F441E0BC
:100F400050E020E030E08C819D81892B11F421E07C
:100F500030E04223532320E030E088859985892BB7
:100F600011F421E030E02423352340E08881998189
:100F7000181619060CF441E050E08A819B8118167E
:100F800019060CF451E04523842F90E028233923DF
:100F9000232B41F068E873E180E090E0A80197011D
:100FA0000E94880040E050E08E819F81181619064B
:100FB00014F441E050E020E030E08C819D81892BE9
:100FC00011F421E030E04223532320E030E0888513
:100FD00099851816190614F421E030E024233523EE
:100FE00040E088819981181619060CF441E050E020
:100FF0008A819B81181619060CF451E04523842F31
:1010000090E028233923232B09F43FC00E94230CAE
:10101000015010400894E108F1088BB188668BB943
:101020002B9A68E97AE380E090E0A80197010E949A
:101030008800015010400894E108F10868E873E165
:1010400080E090E0A80197010E944B008BB1886678
:101050008BB92B9A68E97AE380E090E0A8019701C8
:101060000E94C500015010400894E108F10868E8AA
:1010700073E180E090E0A80197010E944B0098E89E
:10108000A92E93E1B92EC12CD12C40E050E08E81E5
:101090009F81892B11F441E050E020E030E08C8109
:1010A0009D811816190614F421E030E042235323E1
:1010B00020E030E088859985892B11F421E030E02B
:1010C0002423352340E088819981181619060CF4F1
:1010D00041E050E08A819B81181619060CF451E01A
:1010E0004523842F90E028233923232B79F00150C6
:1010F00010400894E108F1080E94230C68E873E1AD
:1011000080E090E0A80197010E94880040E050E054
:101110008E819F81892B11F441E050E020E030E086
:101120008C819D811816190614F421E030E04223C9
:10113000532320E030E0888599851816190614F4A9
:1011400021E030E02423352340E08881998118167E
:1011500019060CF441E050E08A819B8118161906AB
:101160000CF451E04523842F90E028233923232BCE
:1011700069F10E94230C015010400894E108F10825
:1011800068E97AE380E090E0A80197010E94880076
:1011900068E873E180E090E0A80197010E944B00AD
:1011A00068E97AE380E090E0A80197010E94C50019
:1011B00068E873E180E090E0A80197010E944B008D
:1011C00088E8A82E83E1B82EC12CD12C40E050E055
:1011D0008E819F811816190614F441E050E020E03A
:1011E00030E08C819D811816190614F421E030E05E
:1011F0004223532320E030E088859985892B11F420
:1012000021E030E02423352340E0888199811816BD
:1012100019060CF441E050E08A819B8118161906EA
:101220000CF451E04523842F90E028233923232B0D
:1012300069F0015010400894E108F1080E94230C65
:10124000C601B501A80197010E944B0040E050E0A3
:101250008E819F811816190614F441E050E020E0B9
:1012600030E08C819D811816190614F421E030E0DD
:101270004223532320E030E088859985181619060B
:1012800014F421E030E02423352340E08881998163
:10129000181619060CF441E050E08A819B8118165B
:1012A00019060CF451E04523842F90E028233923BC
:1012B000232BC9F10E94230C015010400894E1082F
:1012C000F1088BB188668BB92B9A68E97AE380E0E4
:1012D00090E0A80197010E948800015010400894F6
:1012E000E108F10868E873E180E090E0A801970167
:1012F0000E944B008BB188668BB92B9A68E97AE320
:1013000080E090E0A80197010E94C50001501040C4
:101310000894E108F10868E873E180E090E0A80132
:1013200097010E944B00DF91CF911F910F91FF9089
:10133000EF90DF90CF90BF90AF900895CF92DF9263
:10134000EF92FF920F931F93DF93CF93CDB7DEB74A
:10135000A8970FB6F894DEBF0FBECDBF6C0181E039
:1013600090E00E94B50B80E060E00E94AD0B00D0E1
:1013700000D000D0EDB7FEB731968E010F5F1F4F42
:10138000ADB7BEB712961C930E93119760E0E62E90
:1013900061E0F62EF382E282D6018D919C919583D5
:1013A00084830E94330C8DB79EB706960FB6F894CF
:1013B0009EBF0FBE8DBFC8010E94A10B81E060E0FF
:1013C0000E94AD0B00D000D000D0EDB7FEB7319633
:1013D0008E01075F1F4FADB7BEB712961C930E93D9
:1013E0001197F382E282D60112968D919C91139708
:1013F000958384830E94330C8DB79EB706960FB6F3
:10140000F8949EBF0FBE8DBFC8010E94A10B82E061
:1014100060E00E94AD0B00D000D000D0EDB7FEB769
:1014200031968E010F5E1F4FADB7BEB712961C935B
:101430000E931197F382E282D60114968D919C91BE
:101440001597958384830E94330C8DB79EB70696BB
:101450000FB6F8949EBF0FBE8DBFC8010E94A10BAE
:1014600083E060E00E94AD0B00D000D000D0EDB76B
:10147000FEB731968E01075E1F4FADB7BEB712960D
:101480001C930E931197F382E282D60116968D91EA
:101490009C911797958384830E94330C8DB79EB7D8
:1014A00006960FB6F8949EBF0FBE8DBFC8010E946E
:1014B000A10B84E060E00E94AD0B00D000D000D012
:1014C000EDB7FEB731968E010F5D1F4FADB7BEB7BA
:1014D00012961C930E931197F382E282D60118960E
:1014E0008D919C911997958384830E94330C8DB7BD
:1014F0009EB706960FB6F8949EBF0FBE8DBFC8016B
:101500000E94A10BA8960FB6F894DEBF0FBECDBF08
:10151000CF91DF911F910F91FF90EF90DF90CF90CF
:101520000895DF92EF92FF920F931F93DF93CF9373
:10153000CDB7DEB72A970FB6F894DEBF0FBECDBF8A
:10154000389839983A983B983C98409A419A429AF0
:10155000439A449A8AB180668AB9539A239A219809
:10156000299A24982C9A25982D9A0E94640B8CE035
:1015700090E00E94B50BEAE0DE2E8E010F5F1F4F58
:1015800071E0E72EF12CF8018D2D11928A95E9F783
:10159000F80140E050E086B19701042E02C0220F0E
:1015A000331F0A94E2F790E028233923121613061A
:1015B0001CF4F182E08202C0118210824F5F5F4F03
:1015C00032964530510539F7C8010E940101C80122
:1015D00060E070E00E949E09D6CF219A249A259A55
:1015E000579A0895219824982598579808955C9AB9
:1015F00086E08A95F1F700C089B1881F8827881F87
:10160000880F880F880F1D9984601C998260199932
:1016100081605C98089580FF0CC0299A81FF0BC0FF
:101620002C9A82FF0AC02D9A83FF09C05F9A0C94FE
:10163000F70A2998F3CF2C98F4CF2D98F5CF5F981F
:10164000F6CFCF93DF935A980E94F20A289A0E940D
:10165000F70AC82F0E94F70A90E1C99FE001112400
:101660008C2B87FDF0CFDF91CF910895CF93C82FBA
:101670000E94210B28985A980E94ED0A8C2F82957F
:101680008F700E940B0B8C2F8F700E940B0B0E948F
:10169000F20A8FE0CF910C940B0BCF93C82F0E94CE
:1016A000210B28985A9A0E94ED0A8C2F82958F70F0
:1016B0000E940B0B8C2F8F700E940B0B0E94F20A62
:1016C0008FE0CF910C940B0B28985A985C98529A03
:1016D000209A549A0E94ED0A2FE58AEE90E021505C
:1016E00080409040E1F700C0000083E00E940B0BB7
:1016F0008FE295E70197F1F700C0000083E00E94B8
:101700000B0B8FE097E20197F1F700C0000083E038
:101710000E940B0B8FE097E20197F1F700C00000E9
:1017200082E00E940B0B0E94210B88E20E94360B84
:1017300088E00E94360B81E00E94360B86E00C9414
:10174000360BCF93DF93EC018991811103C0DF91B8
:10175000CF9108950E944D0BF7CF90E4699FB0019F
:101760001124862B80680C94360B0C94360B8F70EA
:101770008A3018F4805D0C944D0B895CFCCFCF93BC
:10178000C82F82958F700E94B70B8C2FCF910C942D
:10179000B70BCF93C82F892F0E94BF0B8C2FCF91EF
:1017A0000C94BF0BA0E0B0E0E8EDFBE00C94160F4A
:1017B000EC01A880B980CA80DB80A114B104C10407
:1017C000D10441F484E2A82E89EDB82E8BE5C82E11
:1017D00087E0D82EC601B5012DE133EF41E050E09E
:1017E0000E94F30E27EA31E440E050E00E94D40E5C
:1017F0007B018C01C601B5012DE133EF41E050E0E2
:101800000E94F30ECA01B9012CEE34EF4FEF5FEFE7
:101810000E94D40E6E0D7F1D801F911F97FF04C084
:101820006150704080409048688379838A839B83AD
:101830009B013F77C901CDB7DEB7EAE00C94320FC8
:101840000E94D20B089583E091E00E94D20B08958C
:10185000A0E0B0E08093030190930401A093050100
:10186000B09306010895AEE0B0E0E9E3FCE00C942B
:101870001C0F0D891E8986E08C831A8309838FEFE4
:101880009FE79E838D839E01275E3F4FCE01019689
:101890006F89788DA9010E94570C2F813885020F1E
:1018A000131FF80110822E96E4E00C94380FABE081
:1018B000B0E0EDE5FCE00C940E0F3C012B015A0169
:1018C000FC0117821682838181FD03C06FEF7FEFD9
:1018D000C6C19AE0892E1E010894211C311CF30117
:1018E0002381F20123FD859123FF81912F0188231C
:1018F00009F4B2C1853239F423FD859123FF81912A
:101900002F01853229F490E0B3010E944A0EE7CFFF
:10191000982FFF24EE249924FFE1FF15D0F09B328D
:1019200069F09C3228F4903259F0933291F40EC051
:101930009D3249F0903369F441E024C052E0F52A29
:1019400084E0F82A28C098E0F92A25C0E0E1FE2AC0
:1019500022C0F7FC29C0892F80538A3070F4F6FE2C
:1019600005C0989C902C1124980E15C0E89CE02C82
:101970001124E80EF0E2FF2A0EC09E3229F4F6FC94
:101980006BC140E4F42A07C09C3619F450E8F52AEC
:1019900002C0983649F4F20123FD959123FF9191FD
:1019A0002F01992309F0B8CF892F8554833018F07F
:1019B0008052833038F444E050E0A40EB51E5FE35B
:1019C00059830FC0933631F0933779F0933509F08E
:1019D00056C020C0F5018081898342E050E0A40E0A
:1019E000B51E610101E010E012C0F501C080D18098
:1019F000F6FC03C06FEF7FEF02C0692D70E042E09C
:101A000050E0A40EB51EC6010E943F0E8C015FE798
:101A1000F52214C0F501C080D180F6FC03C06FEF41
:101A20007FEF02C0692D70E042E050E0A40EB51EC9
:101A3000C6010E94340E8C0150E8F52AF3FE07C05F
:101A40001AC080E290E0B3010E944A0EEA948E2D03
:101A500090E008171907A8F30EC0F601F7FC85916E
:101A6000F7FE81916F0190E0B3010E944A0EE110F0
:101A7000EA94015010400115110579F7EAC0943637
:101A800011F0993669F5F7FE08C0F5012081318122
:101A90004281538184E090E00AC0F5018081918108
:101AA0009C01442737FD4095542F82E090E0A80E1A
:101AB000B91E9FE6F92257FF09C050954095309511
:101AC00021953F4F4F4F5F4FE0E8FE2ACA01B90111
:101AD000A1012AE030E00E94760ED82ED21840C034
:101AE000953729F41F2D1F7E2AE030E01DC01F2DE1
:101AF000197F9F3661F0903720F4983509F0ACC01B
:101B00000FC0903739F0983709F0A6C004C028E01C
:101B100030E00AC0106114FD146020E130E004C020
:101B200014FD166020E132E017FF08C0F501608166
:101B300071818281938144E050E008C0F501808189
:101B40009181BC0180E090E042E050E0A40EB51E1F
:101B5000A1010E94760ED82ED2188FE7F82EF1221E
:101B6000F6FE0BC05EEFF522D91438F4F4FE07C080
:101B7000F2FC05C08FEEF82202C01D2D01C0192D08
:101B8000F4FE0DC0FE01ED0DF11D8081803319F4CE
:101B900099EEF92208C01F5FF2FE05C003C08F2D29
:101BA000867809F01F5F0F2DF3FC14C0F0FE0FC004
:101BB0001E1510F09D2C0BC09D2C9E0C911A1E2DF5
:101BC00006C080E290E0B3010E944A0E1F5F1E151E
:101BD000C0F304C01E1510F4E11A01C0EE2404FF86
:101BE0000FC080E390E0B3010E944A0E02FF1DC0C7
:101BF00001FD03C088E790E00EC088E590E00BC0CF
:101C0000802F867891F001FF02C08BE201C080E254
:101C1000F7FC8DE290E0B3010E944A0E06C080E31B
:101C200090E0B3010E944A0E9A94D914C0F3DA945A
:101C3000F101ED0DF11D808190E0B3010E944A0E8B
:101C4000DD20A9F706C080E290E0B3010E944A0EB1
:101C5000EA94EE20C1F743CEF30166817781CB0190
:101C60002B96E2E10C942A0FFC0105906150704024
:101C70000110D8F7809590958E0F9F1F0895FC0155
:101C80006150704001900110D8F7809590958E0FAB
:101C90009F1F08950F931F93CF93DF938C01EB0148
:101CA0008B8181FF1BC082FF0DC02E813F818C8103
:101CB0009D812817390764F4E881F9810193F9833C
:101CC000E88306C0E885F985802F0995892B31F4D2
:101CD0008E819F8101969F838E8302C00FEF1FEF3D
:101CE000C801DF91CF911F910F910895FA01AA27A2
:101CF000283051F1203181F1E8946F936E7F6E5F4F
:101D00007F4F8F4F9F4FAF4FB1E03ED0B4E03CD0FC
:101D1000670F781F891F9A1FA11D680F791F8A1FDF
:101D2000911DA11D6A0F711D811D911DA11D20D046
:101D300009F468943F912AE0269F11243019305D00
:101D40003193DEF6CF010895462F4770405D4193F1
:101D5000B3E00FD0C9F7F6CF462F4F70405D4A333E
:101D600018F0495D31FD4052419302D0A9F7EACF06
:101D7000B4E0A6959795879577956795BA95C9F735
:101D800000976105710508959B01AC010A2E069428
:101D90005795479537952795BA95C9F7620F731FE1
:101DA000841F951FA01D0895629FD001739FF001AD
:101DB000829FE00DF11D649FE00DF11D929FF00DDB
:101DC000839FF00D749FF00D659FF00D9927729F12
:101DD000B00DE11DF91F639FB00DE11DF91FBD019D
:101DE000CF011124089597FB092E05260ED057FD2B
:101DF00004D04BD00AD0001C38F450954095309553
:101E000021953F4F4F4F5F4F0895F6F7909580957E
:101E1000709561957F4F8F4F9F4F08952F923F92FE
:101E20004F925F926F927F928F929F92AF92BF92EA
:101E3000CF92DF92EF92FF920F931F93CF93DF9396
:101E4000CDB7DEB7CA1BDB0B0FB6F894DEBF0FBEF3
:101E5000CDBF09942A88398848885F846E847D8440
:101E60008C849B84AA84B984C884DF80EE80FD8042
:101E70000C811B81AA81B981CE0FD11D0FB6F894B8
:101E8000DEBF0FBECDBFED010895A1E21A2EAA1B41
:101E9000BB1BFD010DC0AA1FBB1FEE1FFF1FA2171A
:101EA000B307E407F50720F0A21BB30BE40BF50B17
:101EB000661F771F881F991F1A9469F760957095A0
:101EC000809590959B01AC01BD01CF010895F894D8
:021ED000FFCF42
:081ED20025640001000000007E
:00000001FF
