:100000000C9434000C943E000C943E000C943E0082
:100010000C943E000C943E000C943E000C943E0068
:100020000C943E000C943E000C943E000C943E0058
:100030000C943E000C943E000C943E000C943E0048
:100040000C943E000C943E000C943E000C943E0038
:100050000C943E000C943E000C943E000C943E0028
:100060000C943E000C943E0011241FBECFEFD8E04C
:10007000DEBFCDBF0E9440000C9498010C9400009C
:100080008F929F92AF92BF92CF92DF92EF92FF92A8
:100090000F931F93CF93DF9383B1E82EFF2482E069
:1000A000E822FF2483B1082F10E00072107021981D
:1000B000299A25982D9A0E942A018CE090E00E94AE
:1000C0007B01C0E0D0E024EF822E21E0922E81E07F
:1000D00090E00E947B0180E060E00E947301CE010D
:1000E0000E948F0183B190E0827090708E159F0501
:1000F00019F4AA24BB240BC0199903C091E0A92EBE
:10010000B12C83B1E82EFF2482E0E822FF2483B1E2
:1001100090E0807290708017910719F4CC24DD2450
:100120000AC01D9903C081E0C82ED12C83B1082FCD
:1001300010E00072107081E0A816B10421F421973C
:10014000CE010E948F0181E0C816D10421F42196CE
:10015000CE010E948F0184EF91E0F4013197F1F715
:100160000197D9F7B4CF219A249A259A579A0895DE
:10017000219824982598579808955C9A86E08A9546
:10018000F1F700C089B1881F8827881F880F880F62
:10019000880F1D9984601C998260199981605C9810
:1001A000089580FF0CC0299A81FF0BC02C9A82FF12
:1001B0000AC02D9A83FF09C05F9A0C94BD0029984C
:1001C000F3CF2C98F4CF2D98F5CF5F98F6CFCF933F
:1001D000DF935A980E94B800289A0E94BD00C82F49
:1001E0000E94BD0090E1C99FE00111248C2B87FD86
:1001F000F0CFDF91CF910895CF93C82F0E94E700F1
:1002000028985A980E94B3008C2F82958F700E9474
:10021000D1008C2F8F700E94D1000E94B8008FE017
:10022000CF910C94D100CF93C82F0E94E70028985B
:100230005A9A0E94B3008C2F82958F700E94D10031
:100240008C2F8F700E94D1000E94B8008FE0CF9158
:100250000C94D10028985A985C98529A209A549AF3
:100260000E94B3002FE58AEE90E02150804090403C
:10027000E1F700C0000083E00E94D1008FE295E723
:100280000197F1F700C0000083E00E94D1008FE0E9
:1002900097E20197F1F700C0000083E00E94D100CF
:1002A0008FE097E20197F1F700C0000082E00E9422
:1002B000D1000E94E70088E20E94FC0088E00E94D2
:1002C000FC0081E00E94FC0086E00C94FC00CF93CF
:1002D000DF93EC018991811103C0DF91CF910895E3
:1002E0000E941301F7CF90E4699FB0011124862B7F
:1002F00080680C94FC000C94FC008F708A3018F419
:10030000805D0C941301895CFCCFCF93C82F82953C
:100310008F700E947D018C2FCF910C947D01CF9323
:10032000C82F892F0E9485018C2FCF910C948501B5
:04033000F894FFCF6F
:00000001FF
