:100000000C9434000C943E000C943E000C943E0082
:100010000C943E000C943E000C943E000C943E0068
:100020000C943E000C943E000C943E000C943E0058
:100030000C943E000C943E000C943E000C943E0048
:100040000C943E000C943E000C943E000C943E0038
:100050000C943E000C943E000C943E000C943E0028
:100060000C943E000C943E0011241FBECFEFD8E04C
:10007000DEBFCDBF0E9440000C944F010C940000E5
:100080008AB18AB984B184B984B18D7C84B920E401
:1000900098E030E2199905C08BB182278BB985B100
:1000A00085B91C9906C08BB182278BB985B1892788
:1000B00085B983B18BB183278BB98BB189278BB974
:1000C00085B185B91D99E6CF8BB18BB985B18927EB
:1000D00085B9E0CF219A249A259A579A08952198B4
:1000E00024982598579808955C9A86E08A95F1F7A8
:1000F00000C089B1881F8827881F880F880F880F44
:100100001D9984601C998260199981605C9808959A
:1001100080FF0CC0299A81FF0BC02C9A82FF0AC075
:100120002D9A83FF09C05F9A0C9474002998F3CF2D
:100130002C98F4CF2D98F5CF5F98F6CFCF93DF931F
:100140005A980E946F00289A0E947400C82F0E943B
:10015000740090E1C99FE00111248C2B87FDF0CF42
:10016000DF91CF910895CF93C82F0E949E002898C9
:100170005A980E946A008C2F82958F700E94880086
:100180008C2F8F700E9488000E946F008FE0CF91AB
:100190000C948800CF93C82F0E949E0028985A9AEA
:1001A0000E946A008C2F82958F700E9488008C2F8D
:1001B0008F700E9488000E946F008FE0CF910C9496
:1001C000880028985A985C98529A209A549A0E94CB
:1001D0006A002FE58AEE90E0215080409040E1F7E0
:1001E00000C0000083E00E9488008FE295E701973D
:1001F000F1F700C0000083E00E9488008FE097E2E2
:100200000197F1F700C0000083E00E9488008FE0B2
:1002100097E20197F1F700C0000082E00E94880099
:100220000E949E0088E20E94B30088E00E94B30012
:1002300081E00E94B30086E00C94B300CF93DF937B
:10024000EC018991811103C0DF91CF9108950E9443
:10025000CA00F7CF90E4699FB0011124862B806813
:100260000C94B3000C94B3008F708A3018F4805D46
:100270000C94CA00895CFCCFCF93C82F82958F70F5
:100280000E9434018C2FCF910C943401CF93C82F4E
:10029000892F0E943C018C2FCF910C943C01F89443
:0202A000FFCF8E
:00000001FF
