:100000000C9434000C943E000C943E000C943E0082
:100010000C943E000C943E000C943E000C943E0068
:100020000C943E000C943E000C943E000C943E0058
:100030000C943E000C943E000C943E000C943E0048
:100040000C943E000C943E000C943E000C943E0038
:100050000C943E000C943E000C943E000C943E0028
:100060000C943E000C943E0011241FBECFEFD8E04C
:10007000DEBFCDBF0E9440000C9479000C940000BC
:10008000CF93DF93EAE2F0E080818083E4E2F0E066
:100090008081808380818D7C8083C3E2D0E0EBE22D
:1000A000F0E030E4A5E2B0E098E020E2888181FD54
:1000B00005C08081832780838C918C93888184FD07
:1000C00006C08081832780838C9189278C938881C7
:1000D0008081822780838081892780838C918C9383
:1000E000888185FDE3CF808180838C9189278C93E3
:0600F000DDCFF894FFCF04
:00000001FF
