:100000000C9434000C943E000C943E000C943E0082
:100010000C943E000C943E000C943E000C943E0068
:100020000C943E000C943E000C943E000C943E0058
:100030000C943E000C943E000C943E000C943E0048
:100040000C943E000C943E000C943E000C943E0038
:100050000C943E000C943E000C943E000C943E0028
:100060000C943E000C943E0011241FBECFEFD8E04C
:10007000DEBFCDBF0E9440000C94E7000C9400004E
:100080004F925F927F928F929F92AF92BF92CF9248
:10009000DF92EF92FF920F931F93CF93DF93E3E2F0
:1000A000F0E0808190E0AA24BB246894A1F8A82203
:1000B000B922808190E0EE24FF246894E5F8E822DC
:1000C000F922EAE2F0E0808180648083A4E2B0E07B
:1000D0008C918C918D7F8C93E5E2F0E08081826041
:1000E00080838C918F7D8C9380818062808321E0DE
:1000F00030E042E350E0CBE2D0E0A5E2B0E0E3E262
:10010000F0E0882499248394CC24DD240F2EF4E697
:100110004F2E5524F02D0F2EF2E47F2EF02D01C02E
:1001200096012417350738F48881806488838C9180
:1001300088608C9306C088818F7B88838C91877FB1
:100140008C93808190E0827090708A159B0511F4E9
:1001500086010BC0808181FF8401808190E0AA2408
:10016000BB246894A1F8A822B922808190E0807213
:1001700090708E159F0511F4B6010BC0808185FF2C
:10018000B401808190E0EE24FF246894E5F8E82231
:10019000F9220130110539F44530510510F4A6015A
:1001A00002C0455050406130710539F44036510568
:1001B00010F0A20102C04B5F5F4F872D8A95F1F7C7
:1001C0002F5F3F4F2436310508F0AACFAACFF8940D
:0201D000FFCF5F
:00000001FF
